:020000040000FA
:020000002F28A7
:040002000034003492
:080008008B130618102886185E
:10001000152806191A2886191F28061A24282B289D
:10002000A501A301231425142B28A501A301A314C2
:10003000A5142B28A501A301231525152B28A501FF
:10004000A301A315A5152B28A201A701A601A401B0
:0E005000870188012B287C220B108B170900DA
:02005E0003138A
:100060008316161496141615961516160F178F1656
:100070000F1683160317880189010313880187016E
:100080000614861406158615061670228801860148
:100090008701831203138B178B150B14A301A20185
:1000A000A501A5150130A200A701A301A201A40189
:1000B000A6012508A3000130A7005E280B1D5E28BD
:1000C0000B113D308100A00A20080A3C031D5E2868
:1000D000A001A60A2608143C031D7028A601A70A41
:1000E000A40A2408083C031D5E28A4017728A20A5C
:1000F0002208013C031D7D2845292208113C031DCF
:10010000822860292208143C031D872874292208AC
:100110001E3C031D8C2888292208213C031D9128A0
:100120009C292208253C031D9628B0292208283C3A
:10013000031D9B28C4292208323C031DA028D8296E
:100140002208353C031DA528EC292208393C031D53
:10015000AA28002A22083C3C031DAF28142A27089D
:10016000013C031DB428182A2708023C031DB928A6
:10017000222A2708033C031DBE28182A2708043C0E
:10018000031DC328222A2708053C031DC828182A56
:100190002708063C031DCD28222A2708073C031DFB
:1001A000D228182A2708083C031DD728222A270806
:1001B000093C031DDC28182A27080A3C031DE128F6
:1001C000222A27080B3C031DE628182A27080C3C86
:1001D000031DEB28222A27080D3C031DF028182AAE
:1001E00027080E3C031DF528222A27080F3C031D73
:1001F000FA28182A2708103C031DFF28222A27085E
:10020000113C031D0429182A2708123C031D092943
:10021000222A2708133C031D0E29182A2708143CFC
:10022000031D1329222A22081F3C031D1829302AE6
:100230002208203C031D1D29382A2208333C031DB7
:100240002229482A2208343C031D2729502A220843
:100250003A3C031D2C29582A22083B3C031D312916
:10026000642A2208263C031D3629402A2208273CFE
:10027000031D3B29442A2208123C031D4029282A39
:100280002208133C031D5E282C2A87018801231CA9
:100290004D290814881607145E28A31C5329081436
:1002A000881607145E28231D592908158815071478
:1002B0005E28A31D5E2888140816881787145E28F8
:1002C00087018801231C68290814881607145E28F2
:1002D000A31C6E298814881607145E28231D5E2827
:1002E0000815881507145E2887018801231C7C29BE
:1002F0000814881607145E28A31C8229081588157F
:1003000007145E28231D5E280815881507145E282B
:1003100087018801231C90298814881607145E28F9
:10032000A31C96290815881507145E28231D5E282E
:100330000815081607145E2887018801231CA429C4
:100340000815881507145E28A31CAA290815881506
:1003500007145E28231D5E280814881607145E28DB
:1003600087018801231CB8290815881507145E2801
:10037000A31CBE290815081607145E28231D5E2835
:100380000814881607145E2887018801231CCC29CD
:100390000815881507145E28A31CD229081588168D
:1003A00008175E28231D5E280814881607145E2887
:1003B00087018801231CE0290815081607145E2808
:1003C000A31CE6290815881608175E28231D5E2839
:1003D0008814881607145E2887018801231CF429D5
:1003E0000815881608175E28A31CFA290815881610
:1003F00008175E28231D5E280815881608175E2832
:1004000087018801231C082A0815881688175E288A
:10041000A31C0E2A0815881688175E28231D5E283F
:100420000815881688175E2887018801A2015428BC
:100430008714A31D5E288701880188140816881771
:1004400087145E288710A31D5E28870188015E2817
:10045000A31C5E2888105E28A31C5E2888145E28D2
:10046000231C342A88105E28231D5E2808125E286B
:10047000231C3C2A88145E28231D5E2808165E284B
:10048000A31C5E2808125E28A31C5E2808165E289E
:10049000231C4C2A08125E28231D5E2888105E2823
:1004A000231C542A08165E28231D5E2888145E2803
:1004B000231C5C2A88135E28A31C602A88135E28EC
:1004C000231D5E2888135E28231C682A88175E284F
:1004D000A31C6C2A88175E28231D5E2888175E28B7
:1004E00083160313811281110115811401108312E7
:1004F00003133D30810008009630A8006430A90045
:0A050000A90B802AA80B7E2A080030
:02400E009528F3
:02401000FF3F70
:00000001FF
